:100000000C94EE010C9435020C9435020C94E51915
:100010000C9435020C9435020C9435020C94350284
:100020000C9435020C9435020C940A220C94DC22B8
:100030000C94251D0C9435020C9435020C94350259
:100040000C9435020C9435020C9435020C94350254
:100050000C9435020C949A1D0C9435020C943502C4
:100060000C9435020C9435020C9435020C94350234
:100070000C9435020C9435020C9435020C94350224
:100080000C9435020C9435020C9435020C94350214
:100090000C9435020C9435020C9435020C94350204
:1000A0000C9435020C9435020C943502430443043D
:1000B00075047504C204E004F405F405EB0484053A
:1000C0009505950594069406A606A6069D06A60621
:1000D000A606A60694069406A206A606A606A206EC
:1000E00049237023682470236824BC23DF236824F9
:1000F00036244524290014001A00080015001700B2
:10010000E00004001600070009000A00E1001D00DD
:100110001B00060019000500000000000000E300BD
:1001200002512C002A00130012000C0018001C00C1
:10013000340033000F000E000D000B00E500380006
:100140003700360010001100000000000000E6003B
:10015000015128002B001E001F002000210022005A
:10016000E00044004500000000000000E1003A000B
:100170003B003C003D003E00000000000000E300AA
:1001800003512C002A00270026002500240023000C
:10019000000000004F0052005100500000004300DA
:1001A0004200410040003F00000000000000E60067
:1001B000010028002B001E021F0220022102220241
:1001C000E00000000000000000000000E10000006E
:1001D0000000000000000000000000000000E3003C
:1001E00001002C002A0027022602250224022302F5
:1001F0003500310230022F022E022D00350231006F
:1002000030002F002E002D02000000000000E6004C
:1002100003512800005C0000000000000000000006
:10022000C35C00000000000000000000C45C00008F
:100230000000000000000000000000000000E300DB
:1002400001002C0000000000000000000000000081
:10025000000000000000000000000000000000009E
:100260000000000000000000000000000000E600A8
:10027000010028000C0343006F0072006E0065004F
:100280000000100366006F006F00730074006100CF
:100290006E0000000403090409023B00020100A0F3
:1002A000FA09040000010301010009211101000104
:1002B0002240000705810308000A09040100010328
:1002C00000000009211101000122B6000705820388
:1002D00020000A120100020000000853460100013C
:1002E000000102000105010902A10185020901A125
:1002F00000050919012908150025019508750181D6
:10030000020501093009311581257F9502750881A3
:100310000609381581257F950175088106050C0AA7
:1003200038021581257F950175088106C0C0050139
:100330000980A101850319012AB700150126B7001C
:10034000950175108100C0050C0901A101850419F2
:10035000012AA002150126A002950175108100C096
:1003600005010906A1018505050719E029E7150022
:1003700025019508750181020507190029EF15006F
:10038000250195F0750181020508190129059505DA
:1003900075019102950175039101C005010906A13E
:1003A00001050719E029E715002501950875018168
:1003B000029501750881010507190029FF1500261E
:1003C000FF009506750881000508190129059505A6
:1003D00075019102950175039101C00011241FBEA2
:1003E000CFEFDAE0DEBFCDBF04B603FE27C08091B9
:1003F000C6029091C702A091C802B091C90287308D
:10040000904BA740B04BD1F41092C6021092C70295
:100410001092C8021092C90214BE84B7877F84BFAD
:100420000FB6F894A8958091600088618093600071
:10043000109260000FBEE0E0F8E3099511E0A0E043
:10044000B1E0ECE6FAE402C005900D92A63AB107DD
:10045000D9F722E0A6EAB1E001C01D92A63CB2079E
:10046000E1F70E946B140C9434250C94000081E099
:10047000089581E008950C94390208950C943D028A
:100480001F93CF93DF9300D000D01F92CDB7DEB77C
:1004900049835A836B833091A80189819A813111F4
:1004A00014C0662359F0222349F00E943A08182FFD
:1004B000682F89819A810E94E10703C00E940D087C
:1004C000182F69817A81812F04C00E943A086981BE
:1004D0007A810F900F900F900F900F90DF91CF9136
:1004E0001F910C94430FFC01262F408151816281A2
:1004F000738184810C94400281E00895CF93DF934F
:10050000EC0160E00E947302BE01DF91CF910C9478
:100510003E020E9452100E94FA020C948C100C941D
:10052000881008950E9482060E9491022FEF84E3B2
:100530009CE0215080409040E1F700C000000C9406
:10054000C01D0F931F93CF93DF938C0161E00E9436
:100550007302EC01B8010E943B028823F1F1B8015B
:10056000CE010E9494178823C1F1B801CE010E94E8
:10057000E617882391F1B801CE010E941119882352
:1005800061F1F8018281882309F1CB358DE5D80727
:10059000C1F050F4C115FCE5DF0781F0CF3DDC452B
:1005A000A9F40E944B0D19C0CC35EDE5DE0761F0D2
:1005B000CD35DD4559F40E94DC0B08C00E94920243
:1005C0000CC00E94E50B02C00E94E80BC801DF913D
:1005D000CF911F910F910C94370280E0DF91CF9162
:1005E0001F910F91089508950C94F30281E00895EE
:1005F0000C94F6020895CF93C82F0E94F4028C2F1A
:100600000E94F802CF910895CF93DF93CDB7DEB764
:100610002B970FB6F894DEBF0FBECDBF4F83588720
:1006200069877A878B8761110E940B0C9E012F5F6F
:100630003F4F86E0F90111928A95E9F785E0FE01C6
:100640003796D90101900D928A95E1F789819A81B7
:100650004C815D81452B31F09F3F31F491E08F3F1C
:1006600019F403C091E001C090E090FF09C04981F6
:100670005A816B817C818D819E810E940B0B05C00C
:10068000C9010E947C028111F2CF2B960FB6F8941B
:10069000DEBF0FBECDBFDF91CF910895FC018081F9
:1006A00091810E947C080895CF93882309F450C05B
:1006B000C82F8CEF8C0F813AD0F46C2F8091000101
:1006C000909101010E94E61B882349F06C2F8091D4
:1006D0000001909101010E94711C0E94300C6C2F4E
:1006E00080910001909101010E94661C0CC080E283
:1006F0008C0F883058F4C77081E001C0880FCA950C
:10070000EAF70E94EE0BCF910C94300CEBE5EC0F66
:10071000E33040F4F0E0EE59FE4F808190E0CF915D
:100720000C94A41BE8E5EC0FE73150F4F0E0EE0F79
:10073000FF1FEC5CFE4F80819181CF910C94BA1B1E
:10074000CD3E30F08C2F0E94F814CF910C94CA1536
:10075000CF910895882389F19CEF980F913A40F446
:10076000682F80910001909101010E94711C0DC0C1
:1007700090E2980F983058F4877091E001C0990F7B
:100780008A95EAF7892F0E94F40B0C94300C9BE5B4
:10079000980F933020F480E090E00C94A41B98E52F
:1007A000980F973120F480E090E00C94BA1B8D3EB6
:1007B00020F00E9453150C94CA1508951F93CF93EF
:1007C000DF93182FEB010E945403209741F08FE92B
:1007D0009FE00197F1F700C000002197F6CF812F2D
:1007E000DF91CF911F910C94AA03893319F060E037
:1007F00070E002C060E570E00C94DE03882321F015
:100800000E94EE0B0C94300C0895882321F00E9476
:10081000F40B0C94300C0895CF92DF92EF92FF927C
:100820000F931F93CF93DF937C01D62FC72FFC012B
:100830001281058102950F700E94C30B882399F0E5
:10084000112389F08C2F807F803421F080E28D0F7E
:10085000883048F082E00E94800C0E94C30B91E037
:10086000D82ED92601C0D12CCC2EC2948FE0C8221C
:100870008C2D90E08C30910508F0B6C1FC01EA5A4D
:10088000FF4F0C94C2248C2F807FCF70882311F0EF
:10089000C295C07F112399F0CC2309F491C180E265
:1008A0008D0F883010F0D11104C08C2F0E94EE0BF8
:1008B00003C08C2F0E94FE0B0E94300C81C18D2F33
:1008C0000E94AA03CC2309F48FC180E28D0F8830E7
:1008D00010F0D11104C08C2F0E94F40B03C08C2F98
:1008E0000E94040C0E94300C7FC18C2F807FCF703F
:1008F000803211F0C295C07FDD2319F0D130C9F0EC
:1009000022C0112371F0002341F0013031F40E9424
:10091000110C8C2B0E94190C67C10E94110C8C2B9E
:100920001DC0002319F0013009F45EC10E94260C9D
:1009300025C0112321F0063008F056C10EC0053045
:1009400008F052C11BC0112361F0002331F0F70100
:10095000858180FF35C18F7085838C2F0E94FE03B7
:1009600043C1002359F0D93309F03BC1FFEF07EE33
:1009700013E0F15000401040E1F731C18C2F0E948C
:10098000050432C18C2F86958695837019F08130CD
:1009900061F02AC1112321F08D2F9C2F937002C08A
:1009A00080E090E00E94A41B27C1112321F08D2F2D
:1009B0009C2F937002C080E090E00E94BA1B1CC183
:1009C0008D2F112319F00E94F81402C00E945315B4
:1009D0000E94CA1511C18C2F837009F047C01111F4
:1009E00007C12D2F229526952770220F220F6D2FDC
:1009F0006F70862F90E0A0E0B0E0022E04C0880F58
:100A0000991FAA1FBB1F0A94D2F7D4FF10C04FE052
:100A100050E060E070E004C0440F551F661F771F70
:100A20002A95D2F7409550956095709503C040E0A7
:100A300050E0BA01C695C695C3708A019B01082B88
:100A4000192B2A2B3B2BC901B801C23049F058F4AD
:100A5000C13019F00E94F706CBC00E94E506C8C05D
:100A60000E940907C5C00E94E306C2C0112319F005
:100A70008C2F817001C08695882309F4B9C02D2F71
:100A8000229526952770220F220F6D2F6F70862FCB
:100A900090E0A0E0B0E0022E04C0880F991FAA1FCA
:100AA000BB1F0A94D2F7D4FF10C04FE050E060E0C3
:100AB00070E004C0440F551F661F771F2A95D2F7B8
:100AC000409550956095709503C040E050E0BA01A4
:100AD000C695C695C3708A019B01082B192B2A2B3A
:100AE0003B2BC901B801C23049F058F4C13019F0AC
:100AF0000E94BC077DC00E94AA077AC00E94CE0750
:100B000077C00E941D0774C0CF70112339F08C2F5D
:100B10000E9443078D2F0E94FE036AC08D2F0E9402
:100B200005048C2F0E94640763C0D23F01F128F4B2
:100B3000D03F41F0D13FA1F03FC0D33FF9F0D43FC7
:100B400039F13AC0112341F0053008F04DC08C2F27
:100B50008F710E94890748C0063008F045C0F7CF62
:100B6000112339F08C2F8F710E9443073DC0112350
:100B7000C9F38C2F8F710E94640736C0112329F0AE
:100B80008C2F8F710E942E072FC00E9429072CC026
:100B9000112349F0CF718C2F0E94430763E08C2F03
:100BA0000E94650C21C081E00E94800C0230E0F0C0
:100BB00082E00E94800C18C0112331F0002391F2D2
:100BC0008D2F0E94540310C0002399F2D93349F4A9
:100BD0001FEF27EE33E0115020403040E1F700C016
:100BE00000008D2F0E94AA0388EF8C0D843020F422
:100BF0000E94691B0E94FB02DD20C9F00E94BF0B0E
:100C000080FD15C0F70112820E94B90B0E944307B4
:100C1000C7010E9438060E94B90BDF91CF911F9146
:100C20000F91FF90EF90DF90CF900C946407DF91CD
:100C3000CF911F910F91FF90EF90DF90CF9008958B
:100C40000F931F93CF93DF93EC01688179818A81A1
:100C50000E9487088C010E94E0070E94D106B8011B
:100C6000CE010E940C04DF91CF911F910F91089546
:100C7000CF93DF93EC01988189812B813C81232BD9
:100C800031F08F3F31F481E09F3F19F403C081E0E0
:100C900001C080E080FD19C0CE010E94A102811137
:100CA0000CC00E94C30B882381F08A81882369F0DD
:100CB00082E0DF91CF910C94800CCE010E9420063F
:100CC000CE01DF91CF910C947E02DF91CF910895F8
:100CD00080E090E00E94A41B80E090E00E94BA1B9C
:100CE0000E940B0C0E940E0C0E94300C0E94FB16FE
:100CF0000C94CA1580910001909101010E947C1C06
:100D00000C9468060E94FB0B0C947A06E92FE2957E
:100D1000EF704E2F50E0FA013297EE30F105B0F44B
:100D2000EE59FF4F0C94C224803F91F018F4883E96
:100D300068F40EC0843F51F40BC0883E48F0813FF8
:100D400029F406C093FB882780F9089580E0089570
:100D500081E00895FC01808191810E947C080E94BD
:100D600086060895CF93DF9300D000D01F92CDB7B1
:100D7000DEB70F900F900F900F900F90DF91CF91F3
:100D80000895CF93DF9300D000D000D0CDB7DEB769
:100D900026960FB6F894DEBF0FBECDBFDF91CF9180
:100DA0000895089508950C94D2060C94D3060E94D9
:100DB000D5066093CB017093CC018093CD019093C5
:100DC000CE010C9468060C94D7060F931F930091E4
:100DD000CB011091CC012091CD013091CE01602B3F
:100DE000712B822B932B1F910F910C94D7060F938D
:100DF0001F930091CB011091CC012091CD01309136
:100E0000CE0160237123822393231F910F910C94B1
:100E1000D7060F931F930091CB011091CC01209125
:100E2000CD013091CE0160277127822793271F9132
:100E30000F910C94D7060C94D2060E941B07609366
:100E4000C7017093C8018093C9019093CA010C94A3
:100E5000680660E070E0CB010C941D070F931F93B0
:100E600041E050E060E070E08A019B0104C0000FA7
:100E7000111F221F331F8A95D2F7C901B8011F9194
:100E80000F910C941D070F931F9341E050E060E019
:100E900070E004C0440F551F661F771F8A95D2F774
:100EA0008091C7019091C801A091C901B091CA0178
:100EB0008A019B01082B192B2A2B3B2BC901B80156
:100EC0001F910F910C941D070F931F9341E050E069
:100ED00060E070E004C0440F551F661F771F8A95BD
:100EE000D2F740955095609570958091C70190918B
:100EF000C801A091C901B091CA018A019B010823D0
:100F000019232A233B23C901B8011F910F910C9487
:100F10001D070F931F9341E050E060E070E004C0B4
:100F2000440F551F661F771F8A95D2F78091C7011E
:100F30009091C801A091C901B091CA018A019B0199
:100F4000082719272A273B27C901B8011F910F91AC
:100F50000C941D070F931F930091C7011091C801B6
:100F60002091C9013091CA01602B712B822B932BE8
:100F70001F910F910C941D070F931F930091C701B0
:100F80001091C8012091C9013091CA0160237123D9
:100F9000822393231F910F910C941D070F931F938E
:100FA0000091C7011091C8012091C9013091CA0177
:100FB00060277127822793271F910F910C941D079B
:100FC0000895292F220F920F990F890FE82FE69588
:100FD000E695E695877051E001C0550F8A95EAF7CE
:100FE00085E0E89FF0011124E755FE4F20E030E056
:100FF00070E04081CB01022E02C0969587950A943D
:10100000E2F78170819584278523842781932F5F60
:101010003F4F2530310569F70895292F220F920F90
:10102000990F890F682F669566956695982F97702A
:1010300085E0689FB001112440E050E080E0FB01B2
:10104000E40FF51FE755FE4F208130E0092E02C066
:10105000369527950A94E2F721703327042E01C0B4
:10106000220F0A94EAF7822B4F5F5F4F45305105FC
:1010700031F70895BF92CF92DF92EF92FF920F93D4
:101080001F93CF93DF938C01C090C701D090C8010C
:10109000E090C901F090CA018091CB019091CC0100
:1010A000A091CD01B091CE01C82AD92AEA2AFB2A03
:1010B000CFE1D0E0D701C6010C2E04C0B695A795AC
:1010C000979587950A94D2F780FD04C0219790F7F1
:1010D000B12C07C0BC2EB8018C2F0E94560F01976F
:1010E000A9F38B2DDF91CF911F910F91FF90EF907E
:1010F000DF90CF90BF900895CF93DF93EC010E94D3
:101100003A08BE010E94560FDF91CF9108951F93B8
:10111000CF93DF93EB019091A801992321F0CB01AC
:101120000E947C0813C0882349F0CB010E943A0832
:10113000182F682FCE010E94E10704C0CB010E9446
:101140000D08182FBE01812F0E94560FDF91CF91FD
:101150001F9108951F93CF93DF93C091CF0116E0A5
:101160008091D001C81799F0D0E01C9FF0011D9F1D
:10117000F00D1124EF52FE4F408151816281738145
:10118000848195810E94C1062196C770E9CFDF91C5
:10119000CF911F91089540910102509102026091F8
:1011A00003027091040280910502909106020C9452
:1011B000C1060F931F93CF93DF9380910602829510
:1011C0008F7009F05DC080910302882309F458C034
:1011D0008091CF011091D0016091010270910202C3
:1011E000C0910402D091050291E06F3F09F090E0B8
:1011F000292F06E0811709F443C0209721F07F3F93
:1012000021F030E003C031E001C0322F90E030FD2A
:1012100034C0089FF001099FF00D1124DF01AF5287
:10122000BE4F11963C911197371327C03C9136134E
:1012300024C012963C91129731111FC013964D9104
:101240005C9114974C1B5D0B483C5105B0F48091A8
:1012500006028F70806180930602EA52FE4F808101
:101260008F708061808381E092E00E943806DF9178
:10127000CF911F910F910C94AA0801968770BACF55
:10128000DF91CF911F910F9108959F92AF92BF92DE
:10129000CF92DF92EF92FF920F931F93CF93DF9342
:1012A000CDB7DEB761970FB6F894DEBF0FBECDBFE6
:1012B0008C0185E0F801DE011D9601900D928A9562
:1012C000E1F7F801E2809091010260910202209121
:1012D0000402309105022115310531F06F3F31F4E0
:1012E00081E09F3F19F403C081E001C080E0F82F46
:1012F000F1709F2E80FD3FC1F80140815181A38094
:10130000B48081E0C82E82E0D82EF0900302F5016F
:10131000E21BF30BFF2009F4D9C080910602E83CE0
:10132000F10508F095C0282F207F09F052C0561310
:1013300013C0491311C0FE2CE1100EC08F708061E4
:10134000809306020E94CB08C6010E943806809155
:101350000602F80185834CC1AB2831F05F3F31F4C0
:1013600081E04F3F19F403C081E001C080E080FDBF
:1013700003C081E08E2502C080E090E0F82FF1707C
:10138000FF2E80FF1CC08091CF012091D00136E05C
:10139000821709F40BC190E0389FF001399FF00DDE
:1013A0001124EF52FE4F6181561306C0608146132F
:1013B00003C06281E61203C001968770E9CFFE2C5C
:1013C000EE2009F415C18091060281608093060227
:1013D00054C0561306C0491304C0E11002C0F801FE
:1013E00099C0C8010E94AA06882361F1EE2051F13C
:1013F00020910602822F82958F7090E0029774F000
:10140000809101029091020298878F831986BB8692
:10141000AA862C87CE0107960E94380686E0F8013E
:10142000A1E0B2E001900D928A95E1F70E94D908FF
:101430000E94CB080AC0561711F1C8010E94AA06E3
:1014400081112CC0C8010E943806FF24F394D0C03B
:10145000282F207F81F77A2DB98AA88A6E2D898955
:101460000E94B20681E092E00E94380686E0F60112
:1014700011928A95E9F70E94CB08F12CB9C0491363
:10148000DCCFE110DACFF8018583C8010E9438066D
:1014900086E0F60111928A95E9F7AAC0EE2091F252
:1014A00020910602822F82958F7090E002970CF4B3
:1014B000B5CF80910102909102029A8389831B82A9
:1014C000BD82AC822E83CE010196A6CFE83CF10509
:1014D00008F044C0FE2CEE2009F4B4CF561330C0FF
:1014E00049132EC02091060220FD21C0822F829533
:1014F0008F70482F50E041155105C9F0F801258340
:101500004F30510541F08F5F982F9295907F822F39
:101510008F70892B8583C8010E94380686E0F80108
:10152000A1E0B2E001900D928A95E1F73CC086E01F
:10153000F801A1E0B2E001900D928A95E1F758C060
:10154000C8010E94AA06811169CF809106028160BC
:1015500080930602C8010E9438064AC07A2DB98AD3
:10156000A88A6E2D89890E94B20686E0F601119242
:101570008A95E9F718C0EE2009F464CFC8010E94EB
:10158000AA06F82E882309F45DCF86E0F801A1E0D1
:10159000B2E001900D928A95E1F781E092E00E941D
:1015A0004E030E94D9080E94CB0822C04D875E8757
:1015B0008D859E850E947C08292F22952F702230D0
:1015C00028F49F7039F0811105C00BC0243028F435
:1015D0009F7049F4805E883020F0C8010E94380670
:1015E0009F2CF92C05C0F8019581907F99F7F9CFD0
:1015F0008F2D61960FB6F894DEBF0FBECDBFDF9181
:10160000CF911F910F91FF90EF90DF90CF90BF90FF
:10161000AF909F9008951F93CF93DF93CDB7DEB720
:101620002C970FB6F894DEBF0FBECDBF4F835887FF
:1016300069877A878B879C87CE0107960E94450928
:101640008823D1F09F8188852A853B85232B31F023
:101650008F3F31F481E09F3F19F403C081E001C066
:1016600080E080FD47C04F81588569857A858B85EC
:101670009C850E94C1063EC086E0FE013796DE01D1
:10168000119601900D928A95E1F7FF81E8856A85B0
:101690007B856115710531F0EF3F31F481E0FF3F4B
:1016A00019F403C081E001C080E080FD23C02091D7
:1016B000D00130E0C9010196877099274091CF0190
:1016C00050E084179507F1F1F983EA837D836C83F9
:1016D00096E0929FD001939FB00D1124AF52BE4F60
:1016E000FE01319601900D929A95E1F78093D00119
:1016F0000E94AA0816E08091CF019091D00189172D
:1017000071F1189FC00111248F529E4F0E9445090C
:10171000882329F1E091CF011E9FF0011124EF529F
:10172000FE4F4081518162817381848195810E9445
:10173000C1068091CF0190E0019687709927809330
:10174000CF01D9CF0E9482061092D0011092CF0112
:10175000E1E0F2E086E0DF011D928A95E9F72C9640
:101760000FB6F894DEBF0FBECDBFDF91CF911F91B2
:1017700008958091070285958595859508958091B6
:1017800007028770089590910702977081E009F42D
:1017900080E0089590919D0292FB222720F928175E
:1017A00051F080FB92F990939D0280919C02909160
:1017B0009D020C94C70C089580919D0282FB88279E
:1017C00080F991E089270C94CA0B81E00C94CA0B34
:1017D00080E00C94CA0B80912B02089590912B020B
:1017E000892B80932B020895809590912B02892359
:1017F00080932B02089510922B02089590912A0253
:10180000892B80932A020895809590912A0289233A
:1018100080932A02089510922A02089510922902B4
:10182000089580910802089508950C94140C0C9466
:10183000150C90919D0292FD08C090910802981796
:1018400021F0809308020C94170C089580910802EF
:10185000882329F01092080280E00C94170C089558
:10186000E0910001F091010180912B028083E091D1
:101870000001F0910101908180912A02892B8083DF
:10188000E0910001F0910101908180912902892B62
:10189000808380910802882381F0E0910001F0911B
:1018A00001019081892B8083809100019091010139
:1018B0000E94D01B81110E94260C80910001909102
:1018C00001010C947C1B0C94140C90919D0292FDD0
:1018D00010C098E0899F90011124262B20930702C5
:1018E0000E944307809107028595859585950C9404
:1018F000630C0C9443071092070280E00C94630C75
:10190000209107028095822380930702982F977079
:1019100041F430E0482F082E000C550B24173507F2
:1019200021F490919D0292FF07C08595859585953C
:101930000E9464070C947B0C08956FEF7FEF80E0AA
:1019400090E00C941E2580E090E00E94FA2421E0B3
:10195000893E9E4F09F020E0822F089582E090E0BA
:101960000C94F22483E090E00C94F224CF9384E072
:1019700090E00E94F224C82F82E290E00E94F224BC
:101980002C2F30E0A901582BCA01CF910895CF9395
:10199000C92F682F84E090E00E9400256C2F82E21E
:1019A00090E0CF910C940025AB01BC018FE090E05A
:1019B0000C941225AB01BC0183E190E00C9412253C
:1019C00060E070E0CB010C94DA0C60E070E0CB01D9
:1019D0000E94D40C0C94E00C69EE7EEF80E090E065
:1019E0000E941E2560E082E090E00E94002560E0F9
:1019F00083E090E00E9400251092CB011092CC0170
:101A00001092CD011092CE0160E084E090E00E943F
:101A1000002560E082E290E00E94002560E085E021
:101A200090E00E94002560E086E090E00E940025A2
:101A30006FEF87E090E00E94002540E050E0BA019F
:101A400088E090E00E94122560E08DE090E00E9426
:101A5000002540E050E0BA0188E190E00E941225A4
:101A600060E087E190E00E94002540E050E0BA018C
:101A70008CE190E00E94122560E070E080E290E04E
:101A80000E941E2540E050E0BA0188E190E00E94EB
:101A900012250C94E50C0C94EC0C682F8EE090E071
:101AA0000C9400250E94631D6093390270933A02E2
:101AB00080933B0290933C02609335027093360210
:101AC0008093370290933802089585B7806885BF68
:101AD00085B7806885BF08950C94321208950C94E0
:101AE0006E0D0C946E0D0C94710D0C946E0D0C9487
:101AF000750D0C946E0D0E94650D82E390E10E94BD
:101B0000D11D0E94790D0C94770D0E946F0D0C94DD
:101B10006E0D0E944E1D0E948E1C0E9432110E946A
:101B200009170C94730D9F92AF92BF92CF92DF92E0
:101B3000EF92FF920F931F93CF93DF93CDB7DEB752
:101B40002A970FB6F894DEBF0FBECDBF0E94A71133
:101B500081110E94520D8DE2A82E82E0B82E00E085
:101B600010E0902E802F0E947610D82EF501C190A3
:101B70005F01C826B1F40F5F1F4F0830110589F7C8
:101B80008FEF89838A831B820E94571D8160782F83
:101B90009D838C8349815A816B818D810E940403CE
:101BA0002FC080913D0281FD0E947C10E12CFF241A
:101BB000F3948C2D8F21F1F00E946C0D882399F005
:101BC000EE829F82DF2081E009F480E088870E9416
:101BD000571D8160782F9A8789874E815F8168853C
:101BE0008A850E940403F801E35DFD4F8081F82699
:101BF000F08206C0E394FF0CF6E0EF12DACFBBCF21
:101C00000E94E8150E94691B90912C028917B9F077
:101C10000E94691B80932C022A960FB6F894DEBFAF
:101C20000FBECDBFDF91CF911F910F91FF90EF902D
:101C3000DF90CF90BF90AF909F900C94FB022A96BC
:101C40000FB6F894DEBF0FBECDBFDF91CF911F91CD
:101C50000F91FF90EF90DF90CF90BF90AF909F904B
:101C60000895CF93DF930E945B0FEC01811521E56E
:101C7000920708F045C0811530E5930708F094C03D
:101C8000883E910528F5803E910508F0F8C0883A15
:101C9000910570F4853A910508F07CC0813091057A
:101CA00009F475C008F4E8C0049708F0E8C0E4C07F
:101CB0008F3B910508F0E0C0C85AD0E0CC0FDD1F83
:101CC000CB59DE4F0990D881C02DCE019464D8C085
:101CD000811540E2940758F4811551E0950708F00A
:101CE000CEC08D3E910508F4C7C09065C9C0C1152E
:101CF00080E4D80708F4C0C0DF70CE01906AC0C08D
:101D0000811525E59207A8F4811534E5930708F0BD
:101D100095C0811543E5940708F07BC0811552E515
:101D2000950708F061C0D82FCC27CE01816F906A4B
:101D3000A7C0C11589E5D807A0F4C11528E5D207C9
:101D400008F082C0C11536E5D30708F095C08C2F86
:101D50000E94EF0F8F7190E0D82FCC27CE019062B8
:101D60008FC0C1154AE5D40708F474C0CE0190565F
:101D70008115904208F080C08D2F8F710E94EF0F67
:101D8000DD27D0628F71AE01582BCA0179C081E086
:101D900090E076C0C55AD0E0CD56DE4F8881C82F7E
:101DA000D0E0CE0190646CC074E0969587957A95EA
:101DB000E1F7282F23703C2F337081E090E002C0C0
:101DC000880F991F3A95E2F79C68AC01522B9A0153
:101DD0009C2F9F709695969550E2959FE001112457
:101DE000C9018C2B9D2B4CC08370992721E030E0DA
:101DF00002C0220F331F8A95E2F79C2F9695969585
:101E000080E2989FE0011124C22BD32BCE019C6865
:101E100037C08370992721E030E002C0220F331FC2
:101E20008A95E2F79C2F9695969540E2949FE00163
:101E30001124C22BD32BCE019A6822C0D82FCC27D5
:101E4000CE01846F906A1CC0DC2FCC27CE01806F3E
:101E5000906A16C08C2F8F700E94EF0F94E0D69579
:101E6000C7959A95E1F7CF70D0E0DC2FCC27D069E9
:101E70009E01282BC90104C080E090E001C0CE0182
:101E8000DF91CF91089520E3829FC0011124FC01CE
:101E900026E0729FE00DF11D1124E60FF11DEE0FFB
:101EA000FF1FEC50FF4F8591949108950E94430FBE
:101EB0000E94310E08958238910569F1B0F48133A2
:101EC000910509F46DC048F48932910509F463C0A5
:101ED0008A32910509F469C008958533910509F4A2
:101EE00055C089339105B9F00895833E910569F194
:101EF00038F4803E9105B1F0823E910509F10895D4
:101F0000863E9105A9F1873E9105B9F1843E910580
:101F100009F064C023C020919C0220FD4FC021FD28
:101F20004DC0089580919C0280FD44C080919D0227
:101F300080FF44C080919C0284FD42C083EE4DC06E
:101F400080919C0282FF38C0F5CF80919C0282FD77
:101F500033C080919D0280FD31C0ECCF80919D0205
:101F600081FF32C080919C0284FD2AC087EE35C07B
:101F700080919C0283FF26C0F5CF80919C0283FD57
:101F800021C080919D0281FD1FC0ECCF80919C02F9
:101F900085FD1CC01DC080919C0285FD19C016C026
:101FA00080919C0286FD16C017C080919C0286FD20
:101FB00013C010C089E311C082EE0FC080EE0DC0C7
:101FC00080E00BC086EE09C084EE07C089E205C040
:101FD00085E303C08AE201C081E390E00895909117
:101FE0009C0292FF0DC0282F2871283019F4877F9A
:101FF000846006C0282F2471243011F48B7F886000
:1020000093FF0DC0282F2871283119F4877E846131
:1020100006C0282F2471243111F48B7E8861209111
:102020009D0220FF0DC0382F3871383019F4877F9A
:10203000816006C0382F3171313011F48E7F886095
:1020400021FF0DC0282F2871283119F4877E816166
:1020500006C0282F2171213111F48E7E886194FDF4
:10206000877E089580E008950C949D0C0E94A7112E
:102070008FE39CE90197F1F700C000000E94A711CF
:102080000E944A12811102C084E001C080E00E94D7
:10209000761081FF04C00E9434100C94C01D089576
:1020A0000C9436100E94A30C811102C00E944B0DAB
:1020B0000E94AE0C80933D020E94B60C90939D024C
:1020C00080939C020E9450100E94B20C682F70E016
:1020D00080E090E00E94E3066091C7017091C80122
:1020E0008091C9019091CA010C941B07E82FF0E080
:1020F000EA55FD4F80810895089580EA8A95F1F7A9
:10210000089500C008950C947D1008950C948510D6
:102110000C9486100C9485100C948A10F894E82F77
:10212000E295EF70F0E031A1282F2F7081E090E070
:1021300001C0880F2A95EAF7982F9095932391A3D1
:1021400092A1892B82A37894089508950C94A510E8
:102150000F931F93CF93DF93CCE9D1E089918F3F09
:1021600011F00E948E1081E0C03AD807B9F7C6E995
:10217000D1E00CE911E089918F3F11F00E948E109F
:102180000C171D07C1F7DF91CF911F910F91089593
:10219000CF92DF92EF92FF920F931F93CF93DF9333
:1021A0008C01C62FD0E0CE0184569E4F7C01FC01ED
:1021B00090819F3F09F44DC0D62EF894E92FE29507
:1021C000EF70F0E081A19F7021E030E001C0220FAC
:1021D0009A95EAF7822B81A382A12095282322A336
:1021E00078940E948110E6E9F1E020E030E0C12C13
:1021F00051E041914F3FB1F0A42FA295AF70B0E0F4
:1022000090968C9190E04F7002C0959587954A9575
:10221000E2F780FD07C0852F022E01C0880F0A94C7
:10222000EAF701C080E0C82A2F5F3F4F2630310512
:1022300001F7F70180818F3F11F00E948E1061E05D
:10224000C11001C060E08D2D0E948310C00FD11F0E
:10225000C882DF91CF911F910F91FF90EF90DF9097
:10226000CF9008950E944C1280910201809102014A
:10227000811102C094E001C090E09093AF0284E02D
:10228000891B8093AE020E94A810EEE9F2E0A6EA54
:10229000B2E011921D9282E0E63AF807D1F784E0AD
:1022A0000E94FB110E9489020C9456121F93CF9337
:1022B000DF9300D000D0CDB7DEB70E94321260911C
:1022C000AF02882371F119821A821B821C82862F29
:1022D00090E0BE016F5F7F4F8A559D4F0E94641250
:1022E000E091AE029E012B5F3F4FF0E0EA55FD4FBB
:1022F000DE011196882361F010E08D91908198178E
:1023000011F0808311E03196A217B307B1F706C030
:1023100011921D92A217B307D9F711E00E948F0204
:102320000DC070E06A557D4F8091AE0290E08A55F5
:102330009D4F0E94F4120E94A61010E0812F0F9072
:102340000F900F900F90DF91CF911F910895EF9212
:10235000FF920F931F93CF93DF93CDB7DEB72897EC
:102360000FB6F894DEBF0FBECDBF8E010F5F1F4FBB
:1023700088E0F80111928A95E9F7F12C6F2DC801D8
:102380000E94C810F394F4E0FF12F8CF48E050E048
:10239000B8018EE992E00E94DC247C0121E0892BC7
:1023A00009F420E0E114F10441F088E0F801AEE91D
:1023B000B2E001900D928A95E1F76091AF0270E072
:1023C0006A557D4F44E08EE992E00E94FC11EF28AF
:1023D00019F40E94561102C081E090E028960FB6D1
:1023E000F894DEBF0FBECDBFDF91CF911F910F914B
:1023F000FF90EF9008950895FF920F931F93CF934E
:10240000DF938C01F62ED72FC42F222349F081E0D1
:10241000809340020E94571D90933F0280933E029A
:10242000809140028823C1F080913E0290913F024A
:102430000E946F1D059780F0EF2DFD2FD8014C2FC6
:1024400050E0CD01801B910B841795071CF48D91F2
:102450008193F7CF10924002DF91CF911F910F919E
:10246000FF9008958091430281110DC00E94A12424
:10247000811102C082E001C081E08093430282307A
:1024800011F40E949C2481E090914302913009F064
:1024900080E008950C9432120E944A128093020147
:1024A0000E94321281110C949C1208950E943212E3
:1024B000811102C00C949E12089581E09091440213
:1024C0009A3008F080E008950F931F93CF93DF9325
:1024D000EC018B01809144028A3038F4B801CE01BE
:1024E0000E94F21281111DC00AC080914102909198
:1024F00042020E946F1D843F914080F715C0809179
:1025000044028F3F19F08F5F809344028091440210
:102510008A3060F00E94571D9093420280934102DE
:1025200003C01092440202C080E001C081E0DF914C
:10253000CF911F910F9108950C949F190C94A2199B
:10254000EF92FF920F931F93CF93DF937901C82FE0
:10255000880FDD0B41155105A9F08AE08C9FF00131
:102560008D9FF00D1124ED5FFE4F838194818B5B75
:102570009D4F228130E04217530708F49A01A901C8
:102580000E94E924CE010E94AC1A892B09F501159D
:10259000110501F18AE08C9FF0018D9FF00D11244F
:1025A000ED5FFE4F458150E00417150708F4A801C0
:1025B0008AE08C9FF0018D9FF00D1124ED5FFE4F9E
:1025C000668177816B5B7D4FC7010E94E92402C061
:1025D00080E001C081E0DF91CF911F910F91FF90CA
:1025E000EF9008950C9415140C9431140F931F93CD
:1025F000CF93DF9300D000D0CDB7DEB760915A0201
:1026000070915B0280915C0290915D020E947E1D40
:10261000643671058105910528F10E94B41CDC0126
:10262000CB010296A11DB11D89839A83AB83BC8324
:1026300000E010E020E030E044E050E0BE016F5FD9
:102640007F4F82E00E94A012182F882361F00E9421
:10265000631D60935A0270935B0280935C029093B7
:102660005D0201C011E0812F0F900F900F900F902D
:10267000DF91CF911F910F910895AF92BF92CF92AA
:10268000DF92EF92FF920F931F93CF93DF937C0122
:102690005B016A010E945D12811103C001E010E03C
:1026A00002C00AE010E0C1E0D0E0F894B501C70133
:1026B000F60109957894811115C021960C171D0714
:1026C00094F0CC9F9001CD9F300D300D112480E00F
:1026D00090E045E34A95F1F70000019682179307D1
:1026E000C1F7E3CF81E0DF91CF911F910F91FF9070
:1026F000EF90DF90CF90BF90AF900895AF92BF92D0
:10270000CF92DF92EF92FF920F931F93CF93DF93BD
:1027100000D000D01F92CDB7DEB75B01E090A401DE
:10272000F090A50101E010E09E012B5F3F4F40E0DB
:1027300050E060E070E080E00E94A012182F882333
:1027400009F43EC067018FEFC81AD80A609156029B
:102750007091570280915802909159020E947E1DFB
:10276000643671058105910518F104E010E09E01C1
:102770002F5F3F4F40E050E060E070E081E00E945A
:10278000A012182F64E070E0C6010E940A1791E0C1
:102790002D81281390E0192351F10E94631D60934D
:1027A000560270935702809358029093590211C0B9
:1027B00064E070E0C6010E940A179D818913D5CF9D
:1027C000F70181819281A381B48189839A83AB834C
:1027D000BC83112361F089819A81AB81BC81809394
:1027E000520290935302A0935402B09355028091E9
:1027F000520290915302A0915402B0915502F501FA
:1028000080839183A283B383812F0F900F900F90C9
:102810000F900F90DF91CF911F910F91FF90EF904C
:10282000DF90CF90BF90AF9008950F931F93CF93F9
:10283000DF93EC018B014EE753E10E943D138823A7
:1028400051F046EF52E1B801CE01DF91CF911F91D7
:102850000F910C943D1380E0DF91CF911F910F9168
:1028600008950F931F93CF93DF93F894C091A40121
:10287000D091A501CE01019624E0FB01DC0101907D
:102880000D922A95E1F764E070E00E940A178883B0
:102890007894F8946D817E818F81988500914E02A5
:1028A00010914F0220915002309151026017710730
:1028B0008207930751F060934E0270934F0280930A
:1028C0005002909351020E94971C7894DF91CF910F
:1028D0001F910F9108950E94CF1C0E94471F0E94D4
:1028E000601F0E94721F0E94850DFBCF80916402C1
:1028F00080FF0BC06091260185E0689FB001112424
:1029000075956795759567952BC081FF09C0609196
:10291000260185E0689FB00111247595679520C058
:1029200082FF07C06091260185E0689FB0011124F5
:1029300017C0909163029923D1F0609125019617F9
:1029400088F72091260185E0289F90011124929F0D
:10295000A001939F500D112470E0CA010E94AE2483
:102960006038710540F46115710519F406C065E021
:1029700070E0862F08958FE7089581E00895809193
:10298000640280FF08C06091220170E07595679530
:102990007595679521C081FF06C06091220170E0A6
:1029A0007595679519C082FF04C06091220170E09F
:1029B00010C090916202992399F0609121019617BD
:1029C000A0F780912201899FC001112470E00E942C
:1029D000AE246038710540F46115710519F406C024
:1029E00061E070E0862F08958FE7089581E00895F3
:1029F0008D3E21F40E947614819504C08E3E29F408
:102A00000E9476148093680208958F3E21F40E94FC
:102A10007614819504C0803F29F40E947614809337
:102A200067020895893F19F40E94BF1405C08A3FC8
:102A300031F40E94BF1481958093690208958B3F01
:102A400021F40E94BF14819504C08C3F29F40E9498
:102A5000BF1480936A0208959FE0980F983078F42D
:102A600021E030E0A90102C0440F551F9A95E2F71A
:102A7000CA0190916602892B8093660208958D3F6A
:102A800021F48091640281600BC08E3F21F480911B
:102A90006402826005C08F3F29F4809164028460E3
:102AA0008093640208958D3E39F49091680297FFF7
:102AB00035C01092680259C08E3E29F49091680288
:102AC0001916BCF32BC0909167028F3E29F497FF33
:102AD00025C01092670249C0803F19F41916CCF343
:102AE0001DC090916902893F29F41916BCF4109217
:102AF00069023BC08A3F19F497FF10C0F8CF8B3FA3
:102B000039F490916A0297FF09C010926A022DC0B1
:102B10008C3F21F490916A021916BCF39FE0980F44
:102B2000983080F421E030E0A90102C0440F551F25
:102B30009A95E2F7CA018095909166028923809365
:102B4000660213C08D3F21F4809164028E7F0BC01A
:102B50008E3F21F4809164028D7F05C08F3F29F460
:102B6000809164028B7F809364028091670281115F
:102B700006C080916802811102C0109263028091A8
:102B80006902811106C080916A02811102C010920F
:102B9000620208950E94571D20916702211104C00E
:102BA00020916802222321F09093610280936002B9
:102BB00020916902211104C020916A02222321F090
:102BC00090935F0280935E0285E692E00C94961BE0
:102BD000EF92FF920F931F93CF93DF9300D000D01B
:102BE00000D0CDB7DEB786E0E5E6F2E0DE01119673
:102BF00001900D928A95E1F7E0906702F0906802EB
:102C00000091690210916A021092670210926802A4
:102C10001092690210926A02E11003C0FF2009F4C9
:102C20005DC080916002909161020E946F1DAC01B5
:102C300090916302992339F02091270130E0241705
:102C4000350758F04BC0209128018AE0289F900159
:102C500011242417350718F041C09F3F19F09F5FDA
:102C600090936302EE2061F00E9476141E1414F01B
:102C70009FEF01C091E0989F902D112490936702DF
:102C8000FF2061F00E9476141F1414F09FEF01C022
:102C900091E0989F902D11249093680230916702E3
:102CA0003323E1F0209168022223C1F045EB340385
:102CB000C0011124992319F09093670203C081E0A9
:102CC0008093670235EB2303C0011124992319F087
:102CD0009093680203C081E080936802011103C0F1
:102CE000112309F45DC080915E0290915F020E9401
:102CF0006F1DAC0190916202992339F0209123015C
:102D000030E02417350758F04BC0209124018AE0A9
:102D1000289F900111242417350718F041C09F3FC8
:102D200019F09F5F90936202002361F00E94BF142C
:102D3000101614F09FEF01C091E0989F902D112480
:102D400090936902112361F00E94BF14111614F0D0
:102D50009FEF01C091E0989F902D112490936A02FB
:102D6000309169023323E1F020916A022223C1F0FD
:102D700045EB3403C0011124992319F090936902A3
:102D800003C081E08093690235EB2303C001112465
:102D9000992319F090936A0203C081E080936A023C
:102DA0008091670281110BC080916802811107C078
:102DB00080916902811103C080916A0281110E9491
:102DC000CA15EB82FC820D831E8386E0FE013196DC
:102DD000A5E6B2E001900D928A95E1F726960FB62E
:102DE000F894DEBF0FBECDBFDF91CF911F910F9141
:102DF000FF90EF900895E5E6F2E086E0DF011D9296
:102E00008A95E9F7109263021092620210926402AE
:102E100008950895FC01680F791F8FEF91E3E6177D
:102E2000F70771F02191822728E030E087FF03C087
:102E3000880F892701C0880F21503109B9F7EFCFDA
:102E400008950F931F93CF93DF93C42FD22FFC01CC
:102E500082818823C9F040936D020E94571D909390
:102E60006C0280936B0280E28C0F883008F057C0B0
:102E7000C77081E001C0880FCA95EAF7DF91CF9152
:102E80001F910F910C94FE0380916D02481330C086
:102E900080916B0290916C020E946F1D883C91059D
:102EA00038F510E21D0FCD17B9F080E28C0F883095
:102EB00040F4C77081E001C0880FCA95EAF70E940C
:102EC0000504183028F581E09D2F977001C0880F08
:102ED0009A95EAF70E94FE03802F0E94F5031830AE
:102EE000F0F4D77081E001C0880FDA95EAF70AC0E4
:102EF00080E28C0F883098F4C77081E001C0880FA1
:102F0000CA95EAF7DF91CF911F910F910C940504B8
:102F1000802FDF91CF911F910F910C94F503DF91DA
:102F2000CF911F910F9108950F939C01CB01243FE6
:102F30004CE5340731F188F4293DFCE53F07D9F031
:102F40002A3D4CE5340779F1283D3C45A9F506E2D8
:102F500021EE41EE68ED7CE52BC0263FFCE53F0706
:102F6000E1F0A8F0273F3C4539F507E225EE46EEB3
:102F700067EF7CE51DC007E225EE45EE69ED7CE5D7
:102F800017C006E221EE40EE64EF7CE511C007E2D7
:102F900025EE44EE65EF7CE50BC006E221EE42EE45
:102FA00066EF7CE505C008E221E045EE6AED7CE5D0
:102FB0000E94211780E008C0FC018281882319F05B
:102FC00010926D0201C081E00F910895CF93DF93BD
:102FD000EC01FB018281882309F41FC1C230FCE5AA
:102FE000DF0708F41BC1C6319CE5D90738F09E0104
:102FF0002B5F3C452930310508F010C10E94B60C0A
:1030000090939D0280939C02C031ECE5DE0709F4A9
:10301000C3C008F041C0C8308CE5D80709F49AC095
:10302000F0F4C430ECE5DE0709F487C068F4C23080
:103030008CE5D80709F477C0C330DC4509F0E3C05C
:1030400080919C02826076C0C630ECE5DE0709F410
:103050006EC008F07BC080919C0288606BC0CC3051
:103060008CE5D80709F485C068F4CA30ECE5DE07C2
:1030700009F474C008F079C00E94820680919C0215
:10308000806858C0CE308CE5D80709F476C008F0C7
:103090007FC080919C028BC0CC3FECE5DE0709F439
:1030A0004FC018F5C3318CE5D80709F47DC078F41A
:1030B000C131ECE5DE0709F473C0C231DC4509F02B
:1030C000A2C00E94820680919C028F7733C0C531D6
:1030D0008CE5D80709F472C008F486C0CB3FDC4504
:1030E00009F091C080919D023EC0C115FDE5DF074A
:1030F00009F45FC058F4CE3F9CE5D90709F444C0F9
:1031000008F43FC080919D0282602DC0C230FDE571
:10311000DF0709F475C008F45DC0C330DD4509F070
:1031200072C080E06EC080919C02816003C080917B
:103130009C02806180939C0266C080919C0211C0B9
:1031400080919D02826080939D025DC080919C026F
:103150008062F0CF80919C028064ECCF80919C02D1
:1031600088608460E7CF8160EECF80919C028E7F83
:10317000E1CF80919C028D7FDDCF80919C02877F83
:10318000D9CF80919D0218C080919D028D7FDBCFA9
:1031900080919C028F7ECECF80919C028F7DCACF82
:1031A00080919C028F7BC6CF80919C02877F8B7F12
:1031B000C1CF80919D028D7F8E7FC5CF80919C0273
:1031C00082FB222720F991E0922790FB82F990FB65
:1031D00083F9B0CF80919D02982F909591708E7F4A
:1031E000892B90FB81F9AFCF0E94820680919C02CF
:1031F00087FB222720F991E0922790FB87F99ACF4D
:1032000081E00E944D0D80919C0290919D020E9450
:10321000C70C0E94820680E001C081E0DF91CF915F
:103220000895CF93DF9386319C4541F5EB010E94D1
:10323000EB0B982F8A8120910001309101018823A6
:1032400079F09A7A81E009F480E080936E0291111E
:1032500002C069E201C065E3C9010E94661C0AC0A0
:1032600080916E02811102C069E201C065E3C9016B
:103270000E94711C0E94300C80E001C081E0DF914F
:10328000CF9108958EE14A9B02C08150E1F74A9B9D
:10329000FECF08955A9880E28A95F1F75A9A0895D8
:1032A000FC012AE02A95F1F728E090E080E031E087
:1032B00040E14A95F1F7880F4A9B02C0816093274D
:1032C00000C0000040E14A95F1F7215089F720E164
:1032D0002A95F1F729B100C0000030E13A95F1F7E5
:1032E00022FB222720F992272081920F90830895B4
:1032F000EF92FF920F931F93CF93DF931F92CDB75F
:10330000DEB719828C017C01E60EF11C0E151F053B
:1033100051F00E944219CE0101960E945019F80105
:1033200081938F01F3CF81E09981911180E00F901B
:10333000DF91CF911F910F91FF90EF900895529AD6
:103340005A9A089552985A9AEA9AE9E6F0E08081EA
:103350008F7C80830895615091E001C0990F6A9538
:10336000EAF720E031E0992361F0492F482319F072
:103370005A9A232701C05A9840E24A95F1F7969548
:10338000F2CF222311F05A9A01C05A9880E28A950E
:10339000F1F75A980895FF920F931F93CF93DF93FD
:1033A000EC018C01060F111DC017D10741F0F990F7
:1033B0000E944A1968E08F2D0E94AB19F5CFDF916A
:1033C000CF911F910F91FF9008951F920F920FB60A
:1033D0000F921124EF92FF920F931F932F933F931D
:1033E0004F935F936F937F938F939F93AF93BF930D
:1033F000EF93FF93CF93DF931F92CDB7DEB7198280
:103400000E944219CE0101960E945019A82FA6953C
:10341000A695A6959A2F969595702A2F2570920FAE
:10342000292F237096959695920F877089137CC0EB
:103430008981811179C0A43008F076C080E18A9535
:10344000F1F75A9A529AB2E0BA95F1F700C05A9839
:10345000EA2EF12CEAE0AE9FD0011124AD5FBE4F01
:103460001896ED91FC9119973097B1F06091A401F5
:103470007091A50116962D913C911797260F371F35
:1034800013968D919C911497680F791F15964C9106
:10349000159712968C9109958AE08E9DF0018F9D6B
:1034A000F00D1124ED5FFE4F6581662351F0809190
:1034B000A4019091A50126813781820F931F0E945C
:1034C000CB190E944A19F0E1FA95F1F75A985298EF
:1034D0005A9A80E18A95F1F78AE08E9D80018F9D4E
:1034E000100D11240D5F1E4FD80112966C9112978A
:1034F000662399F08091A4019091A50113962D91D6
:103500003C911497820F931F0E947819D801ED9176
:10351000FC91811105C082E004C0D801ED91FC91BD
:1035200088E080830E9442190F90DF91CF91FF9134
:10353000EF91BF91AF919F918F917F916F915F912B
:103540004F913F912F911F910F91FF90EF900F900E
:103550000FBE0F901F9018950F931F93CF93DF937B
:10356000843091050CF0A9C02AE0289FF001299F22
:10357000F00D1124ED5FFE4F20813181232B09F4E2
:103580009CC0EC01F894529A5A9885E08A95F1F71C
:1035900000008C2F869585709C2F9570890F982F31
:1035A0009370869586958E0123E0000F111F2A9552
:1035B000E1F7890F082B0E944A19A4E0AA95F1F7B8
:1035C00000C068E0802F0E94AB19B0E1BA95F1F716
:1035D00052985A9A4A9902C000C0FCCF87E090E006
:1035E0004A9B17C0019799F4529A5A9A8AE08C9F85
:1035F000F0018D9FF00D1124ED5FFE4F0190F081E1
:10360000E02D81E08083789481E090E058C000C094
:10361000E7CF8AE08C9F80018D9F100D11240D5FF4
:103620001E4FF80165816623B9F08091A401909145
:10363000A50126813781820F931F0E94781981117D
:103640000BC0529A5A9AD801ED91FC9182E0808386
:10365000789482E090E033C00E944219B0E2BA95BB
:10366000F1F75A98529AE0E1EA95F1F78AE08C9FD7
:10367000F0018D9FF00D1124ED5FFE4F62816623F6
:1036800051F08091A4019091A50123813481820F92
:10369000931F0E94CB190E944A198AE08C9FF00167
:1036A0008D9FF00D1124ED5FFE4F0190F081E02D14
:1036B0001082789480E090E002C084E090E0DF9196
:1036C000CF911F910F91089590937502809374028A
:1036D00008950E943212811103C080916F020895F3
:1036E000E0917402F0917502309721F00190F08121
:1036F000E02D099480E00895E0917402F091750244
:10370000309799F020913301222359F020919C02A7
:1037100027FF07C0DC012C9111962C93119725E00F
:103720002C930280F381E02D09940895E0917402B6
:10373000F0917502309739F022E0DC012C9304807F
:10374000F581E02D09940895209172023091730261
:103750002817390771F09093730280937202E091F9
:103760007402F0917502309721F00680F781E02D08
:103770000994089520917002309171022817390739
:1037800071F09093710280937002E0917402F09155
:103790007502309721F00084F185E02D0994089599
:1037A000FC01329680913301882331F080919C0294
:1037B00087FF02C09EE101C096E080E0915028F0B2
:1037C00021912223D9F38F5FF9CF0895662351F118
:1037D000209133012223E9F020919C0227FF19C098
:1037E000462F4695469546954E31E0F4677021E0A8
:1037F00030E002C0220F331F6A95E2F7FC01E40FAC
:10380000F11D828190E02823392381E0232B69F484
:1038100009C0FC01329608962191621729F0E81739
:10382000F907D1F780E0089581E008959C01FC013B
:1038300032969FEF80E04191461789F09F3F19F43F
:10384000411101C0982F8F5F8630A9F79F3F39F053
:10385000F901E90FF11D97FDFA9562830895089526
:103860009C012A5F3F4FFC014281461301C0128236
:10387000019682179307B9F70895262F2695269566
:1038800026952E3168F4FC01E20FF11D677021E0EE
:1038900030E001C0220F6A95EAF78281282B22834B
:1038A0000895262F2695269526952E3170F4FC0135
:1038B000E20FF11D677021E030E001C0220F6A9530
:1038C000EAF72095828128232283089520913301ED
:1038D000222329F020919C0227FD0C943D1C0C947E
:1038E000161C20913301222329F020919C0227FDF0
:1038F0000C94511C0C94301C20913301FC01329625
:10390000222331F080919C0287FF02C08EE101C02A
:1039100086E0DF011D928A95E9F708951092B102C1
:103920001092B2021092B3021092B4020895CF9294
:10393000DF92EF92FF926B017C010E9432128111A3
:103940000EC00E94631DC61AD70AE80AF90AC0927F
:10395000B102D092B202E092B302F092B402FF90B0
:10396000EF90DF90CF9008950F931F930E94321233
:10397000882321F01F910F910C94631D0E94631DF9
:103980000091B1021091B2022091B3023091B402C1
:10399000600F711F821F931F1F910F91089508954B
:1039A00008950C94D01C0C94D01CCF930E94D31C6F
:1039B0000E94A7110E94D11CC0E08C2F0E9476109B
:1039C000811104C0CF5FC830C1F701C081E0CF9141
:1039D00008950C94D01C0C94E91C8091BD02843095
:1039E00049F10E94EB1C80E00E94FB0210927602DB
:1039F00020E488E190E00FB6F894A89580936000E9
:103A00000FBE2093600083B7817F846083BF83B73C
:103A1000816083BF7894889583B78E7F83BF0FB60C
:103A2000F894A8958091600088618093600010925E
:103A300060000FBE08950C94D01C0E9482060E9464
:103A4000691B0E94FB020C941B1D1F920F920FB664
:103A50000F9211248F939F93AF93BF93809176021F
:103A6000811113C08091B5029091B602A091B70266
:103A7000B091B8024196A11DB11D8093B5029093FB
:103A8000B602A093B702B093B802BF91AF919F91D5
:103A90008F910F900FBE0F901F90189582E084BDFC
:103AA00093E095BD9AEF97BD80936E0008952FB770
:103AB000F8948091B5029091B602A091B702B091AE
:103AC000B8022FBF08952FB7F8946091B502709196
:103AD000B6028091B7029091B8022FBF08959C0161
:103AE0004FB7F8948091B5029091B602A091B702B9
:103AF000B091B8024FBF821B930B0895CF92DF9213
:103B0000EF92FF922FB7F894C090B502D090B60212
:103B1000E090B702F090B8022FBFA7019601261BD4
:103B2000370B480B590BCA01B901FF90EF90DF909A
:103B3000CF90089578941F920F920FB60F92112490
:103B40008F939F93AF93BF938091B5029091B602EC
:103B5000A091B702B091B8020196A11DB11D80934A
:103B6000B5029093B602A093B702B093B802BF918A
:103B7000AF919F918F910F900FBE0F901F9018954E
:103B800087E797E790930108809300089AE088E11F
:103B90000FB6F894A895809360000FBE90936000D4
:103BA000FFCF9093A7018093A601089580919A0278
:103BB00008959091BD02943031F58093770270930F
:103BC00079026093780282E08093E9008FEF909110
:103BD000E800815095FD06C095ED9A95F1F700003B
:103BE0008111F5CF8091E80085FF0DC040E050E0E5
:103BF00063E070E087E792E00E94FE1F8091E8009A
:103C00008E778093E8000895BC0184E00C94D91D60
:103C1000BC0183E00C94D91D22E02093E9002FEF32
:103C20003091E800215035FD06C035ED3A95F1F7A9
:103C300000002111F5CF2091E80025FF0BC040E0E6
:103C400050E066E070E00E94FE1F8091E8008E77F1
:103C50008093E8000895CF93DF93209133012223CE
:103C600039F020919C0227FF03C060E222E002C0ED
:103C700068E021E02093E9002FEF3091E800215027
:103C800035FD06C035ED3A95F1F700002111F5CF6D
:103C90002091E80025FF1DC0EC01809133018111C6
:103CA00005C040E050E068E070E003C070E040E034
:103CB00050E0CE010E94FE1F8091E8008E77809335
:103CC000E80080E2FE01AAE7B2E001900D928A9539
:103CD000E1F7DF91CF9108958091BC02811109C075
:103CE0000E948F210E94EC218091E20084608093E9
:103CF000E20008951092BC02089508950895089571
:103D000042E061EC81E00E94082142E261EC82E045
:103D10000C9408218091BF02833009F460C030F414
:103D2000813071F0823009F499C008958A3009F425
:103D300085C08B3009F46BC0893009F0A7C020C062
:103D40008091BE02813A09F0A1C08091E800877F8E
:103D50008093E8008091C2029091C302892B21F4E4
:103D600060E28AE792E003C060E080E090E070E00B
:103D70000E9449208091E8008B778093E8000895A5
:103D80008091BE02813209F081C08091C20290917F
:103D9000C302029708F07AC08091E800877F809381
:103DA000E8008091E80082FD05C08091BD0281118C
:103DB000F8CF6CC02091F3008091F20090E0922B3C
:103DC000029729F48091F1008B7F813021F480915A
:103DD000F10080939A028091E8008B7753C0809124
:103DE000BE02813A09F052C08091C2029091C30292
:103DF000892B09F04BC08091E800877F8093E80011
:103E00008091E80080FFFCCF8091330136C0809123
:103E1000BE028132D9F58091C2029091C302892BF2
:103E2000A9F58091E800877F8093E8000E943D21FA
:103E30008091C002809333010C9482068091BE026F
:103E4000813221F58091E800877F8093E8000E940D
:103E50003D218091C10280939B0208958091BE0212
:103E6000813AA1F48091E800877F8093E8008091F7
:103E7000E80080FFFCCF80919B028093F10080914D
:103E8000E8008E778093E8000C943D21089584B774
:103E9000877F84BF0FB6F894A895809160008861F1
:103EA00080936000109260000FBE90E080E80FB633
:103EB000F89480936100909361000FBE0C947B0D89
:103EC0000E948F210E94EC21E2EEF0E0808184606C
:103ED000808378940E9481240E94890D89E291E078
:103EE0000C94641B8091BD028530A9F48091BD02C1
:103EF000853079F40E94ED1C8091BB028823B1F3D8
:103F00000E94D51C882391F30E94E81F0E9482061C
:103F1000EDCF0E941D1D0C94930D0C948F1F292F23
:103F2000332723303105C9F060F42130310581F0A9
:103F30002230310509F044C08BE390E028E932E0FB
:103F400043C021323105E1F02232310549F138C058
:103F500082E190E023ED32E037C09927813091056E
:103F600049F028F0029761F5E4E7F2E005C0E4E9E2
:103F7000F2E002C0E2E8F2E0849190E09F0124C008
:103F80006115710541F061307105D1F489E090E06F
:103F900023EC32E019C089E090E02AEA32E014C054
:103FA0006115710541F06130710551F486EB90E0C7
:103FB00025EE32E009C080E490E02BE933E004C054
:103FC00080E090E020E030E0FA0131832083089522
:103FD00080E189BD82E189BD09B400FEFDCF8091F9
:103FE000D8008F7D8093D8008091E000826080931C
:103FF000E0008091E00081FDFCCF0895CF92DF9238
:10400000EF92FF920F931F93CF93DF93EC018B01FD
:104010007A010E945C21811133C0E114F10439F06E
:10402000F70180819181081B190BC80FD91FC12C82
:10403000D12C0115110519F18091E80085FD16C0FC
:104040008091E8008E778093E800E114F10449F054
:10405000F70180819181C80ED91ED182C08285E08E
:104060000FC00E945C21882321F30AC089918093AC
:10407000F10001501109FFEFCF1ADF0ADACF80E01B
:10408000DF91CF911F910F91FF90EF90DF90CF9034
:1040900008952091C4023091C5022617370748F0D1
:1040A0006115710539F42091E8002E772093E8001E
:1040B00001C0B901FC0120E06115710579F1809121
:1040C000BD028823F1F18530F1F18091E80083FD94
:1040D0003CC08091E80082FD2EC08091E80080FF06
:1040E000EBCF2091F3008091F20090E0922B6115CC
:1040F000710551F08830910538F421912093F10039
:10410000615071090196F3CF21E0089709F020E092
:104110008091E8008E778093E800CECF2111CFCF39
:104120000AC08091BD02882361F0853061F08091E2
:10413000E80083FD0AC08091E80082FFF2CF80E0B2
:10414000089582E0089583E0089581E00895209124
:10415000C4023091C5022617370748F06115710572
:1041600039F42091E8002E772093E80001C0B901CE
:10417000FC0120E06115710591F18091BD02882359
:1041800009F440C0853009F43FC08091E80083FD08
:104190003DC08091E80082FD2FC08091E80080FF43
:1041A000E9CF2091F3008091F20090E0922B61150D
:1041B000710559F08830910540F424912093F10065
:1041C0003196615071090196F2CF21E0089709F00C
:1041D00020E08091E8008E778093E800CBCF21111A
:1041E000CCCF0AC08091BD02882361F0853061F098
:1041F0008091E80083FD0AC08091E80082FFF2CF41
:1042000080E0089582E0089583E0089581E00895B4
:10421000982F973068F59093E900981739F07091CE
:10422000EC002091ED005091F00003C0242F762F78
:1042300050E021FD02C09F5FECCF3091EB003E7F4C
:104240003093EB003091ED003D7F3093ED003091E5
:10425000EB0031603093EB007093EC002093ED00A5
:104260005093F0002091EE0027FDE5CF80E0089507
:104270008F708093E90081E008958091BE0287FFEE
:1042800011C08091E80082FD05C08091BD028111BE
:10429000F8CF11C08091E8008B770BC08091BD02F0
:1042A000882349F08091E80080FFF8CF8091E800F2
:1042B0008E778093E80008952091E4003091E50026
:1042C00095E64091EC00842F817040FF23C08091DF
:1042D000E80080FD1DC08091BD02882399F08530E3
:1042E00099F08091EB0085FD11C04091E400509160
:1042F000E5002417350729F3915011F09A01E1CF19
:1043000084E0089582E0089583E0089581E00895AF
:1043100080E008954091E80042FFDDCF08950E94BB
:10432000FD210E940522E0EEF0E080818160808323
:10433000E8EDF0E080818F77808319BCA7EDB0E0D5
:104340008C918E7F8C9380818F7E80831092BC02B3
:1043500008950F931F93CF93DF930E94FD210E9436
:104360000522C8EDD0E088818F77888388818068B6
:10437000888388818F7D888319BC1092BD0210923A
:10438000B9021092BB021092BA0200EE10E0F801DE
:1043900080818B7F808388818160888342E060E0B8
:1043A00080E00E940821E1EEF0E080818E7F808332
:1043B000E2EEF0E08081816080838081886080838C
:1043C000F80180818E7F8083888180618883DF917E
:1043D000CF911F910F910895E8EDF0E080818F7EDD
:1043E0008083E7EDF0E080818160808384E082BF9C
:1043F00081E08093BC020C94A921E8EDF0E080817B
:104400008E7F80831092E20008951092DA0010925D
:10441000E10008951F920F920FB60F9211242F936F
:104420003F934F935F936F937F938F939F93AF933C
:10443000BF93EF93FF938091E10082FF0BC08091C7
:10444000E20082FF07C08091E1008B7F8093E10052
:104450000E9480248091DA0080FF1FC08091D800E4
:1044600080FF1BC08091DA008E7F8093DA008091FC
:10447000D90080FF0DC080E189BD82E189BD09B40A
:1044800000FEFDCF81E08093BD020E946C1E05C03E
:1044900019BC1092BD020E947A1E8091E10080FF3B
:1044A00019C08091E20080FF15C08091E2008E7FEC
:1044B0008093E2008091E20080618093E20080912D
:1044C000D80080628093D80019BC85E08093BD023B
:1044D0000E947E1E8091E10084FF30C08091E20046
:1044E00084FF2CC080E189BD82E189BD09B400FE52
:1044F000FDCF8091D8008F7D8093D8008091E1001E
:104500008F7E8093E1008091E2008F7E8093E200B5
:104510008091E20081608093E2008091B90288235B
:1045200011F084E007C08091E30087FD02C081E0C4
:1045300001C083E08093BD020E947F1E8091E10054
:1045400083FF29C08091E20083FF25C08091E100B4
:10455000877F8093E10082E08093BD021092B902D0
:104560008091E1008E7F8093E1008091E2008E7F58
:104570008093E2008091E20080618093E20042E05B
:1045800060E080E00E9408218091F00088608093C4
:10459000F0000E947D1EFF91EF91BF91AF919F911E
:1045A0008F917F916F915F914F913F912F910F90DC
:1045B0000FBE0F901F9018951F920F920FB60F927B
:1045C00011242F933F934F935F936F937F938F9318
:1045D0009F93AF93BF93CF93DF93EF93FF93C091DC
:1045E000E900CF708091EC00D82FD17080FDD0E829
:1045F0001092E9008091F000877F8093F00078941A
:104600000E9420231092E9008091F000886080933E
:10461000F000CD2BCF70C093E900FF91EF91DF91B7
:10462000CF91BF91AF919F918F917F916F915F914A
:104630004F913F912F910F900FBE0F901F901895A3
:104640001F93CF93DF93CDB7DEB7AA970FB6F89439
:10465000DEBF0FBECDBFEEEBF2E08091F1008193A3
:1046600022E0E63CF207C9F70E948A1E8091E8002A
:1046700083FF2EC18091BE029091BF02492F50E06E
:104680004A30510508F024C1FA01E059FF4F0C945B
:10469000C224803821F0823809F01AC108C0809104
:1046A000BA029091BB02992389F082600FC0809179
:1046B000C2028F70873008F00BC18093E9008091AF
:1046C000EB0085FB882780F91092E9009091E800C3
:1046D000977F9093E8008093F1001092F100D1C091
:1046E000282F2D7F09F0F4C0882319F0823061F063
:1046F000EFC08091C002813009F0EAC0933009F028
:1047000080E08093BB022EC08091C00281112AC03C
:104710008091C2028F702FEF280F263008F0D8C08A
:104720008093E9002091EB0020FF1CC0933021F41E
:104730008091EB00806214C09091EB0090619093A7
:10474000EB0021E030E0A90102C0440F551F8A951B
:10475000E2F74093EA001092EA008091EB00886053
:104760008093EB001092E9008091E800877F8093AE
:10477000E8000E943D21ACC08111AAC01091C00286
:104780001F778091E3008078812B8093E3008091F4
:10479000E800877F8093E8000E943D218091E80037
:1047A00080FFFCCF8091E30080688093E3001111CB
:1047B00002C082E001C083E08093BD0289C08058BE
:1047C000823008F085C08091C0029091C1028C3D7A
:1047D00053E0950779F583E08A838AE289834FB7AE
:1047E000F894DE01139620E03EE051E2E32FF0E082
:1047F00050935700E49120FF03C0E295EF703F5FB4
:10480000EF708E2F90E0EA3010F0C79601C0C0968E
:104810008D939D932F5F243149F74FBF8091E8001E
:10482000877F8093E8006AE270E0CE0101960E94E3
:10483000492016C06091C2027091C302AE014F5F61
:104840005F4F0E948D1FBC01892B09F441C09091DC
:10485000E800977F9093E80089819A810E94A720C1
:104860008091E8008B778093E80032C0803881F532
:104870008091E800877F8093E8008091B90280935F
:10488000F1008091E8008E7772CF811121C0809174
:10489000C0029091C10299270297D4F48091E80058
:1048A000877F8093E8008091C0028093B9020E94C4
:1048B0003D218091B902811106C08091E30087FDFE
:1048C00002C081E001C084E08093BD020E94801E8E
:1048D0008091E80083FF0AC08091E800877F809381
:1048E000E8008091EB0080628093EB00AA960FB6FF
:1048F000F894DEBF0FBECDBFDF91CF911F91089519
:104900000895CF938091BD028823A1F0C091E90062
:10491000CF709091EC00892F817090FD80E8C82BBA
:104920001092E9008091E80083FD0E942023CF705F
:10493000C093E900CF9108950E948F211092BD028B
:104940000895E8EDF0E08081806180838AE18A95B6
:10495000F1F700C08091D9008170089597FB072E70
:1049600016F4009407D077FD09D00E94C82407FCF4
:1049700005D03EF4909581959F4F0895709561956F
:104980007F4F0895EE0FFF1F0590F491E02D0994DD
:10499000AA1BBB1B51E107C0AA1FBB1FA617B70765
:1049A00010F0A61BB70B881F991F5A95A9F7809581
:1049B0009095BC01CD010895FB01DC0104C08D91EF
:1049C0000190801921F441505040C8F7881B990B81
:1049D0000895FB01DC0102C001900D92415050404E
:1049E000D8F70895F999FECF92BD81BDF89A99271D
:1049F00080B50895A8E1B0E042E050E00C9426258F
:104A0000262FF999FECF92BD81BDF89A019700B487
:104A1000021639F01FBA20BD0FB6F894FA9AF99A27
:104A20000FBE08950396272F0E9401250E9400259E
:104A3000252F0E940125242F0C9401250196272F54
:104A40000E9401250C940025DC01CB01FC01F999A1
:104A5000FECF06C0F2BDE1BDF89A319600B40D92CA
:0C4A600041505040B8F70895F894FFCF83
:104A6C00090201B0020000000100000000B00200C9
:104A7C0000000401000000B002040500000000006A
:104A8C00002808641E140A321ED61D2B1E0C1E088C
:104A9C001E041E01E200E900EA00B500B600B700F2
:104AAC00CD008301CC008A019201940121022302E2
:104ABC0024022502260227022A02B300B4006F004A
:104ACC007000818283E200E900EA00B500B600B70D
:104ADC0000CD008301CC008A0192019401210223B4
:104AEC000224022502260227022A02B300B4006F18
:104AFC00007000818283F4F5F6F73133946697C623
:064B0C000000000045025C
:00000001FF
